:020000021000EC
:100134002F6C69622F6C642D6C696E75782D6172F9
:090144006D68662E736F2E330006
:10015000040000001000000001000000474E5500A0
:100160000000000002000000060000002000000067
:10017000040000001400000003000000474E55007A
:100180005547B657047C0F6F721E8F1F2550B478E9
:04019000CB664231C7
:1001940025000000430000000000000028000000CB
:1001A400000000002F0000003500000037000000B0
:1001B4003E0000003B000000400000002E00000054
:1001C4002500000038000000290000002A0000007B
:1001D4003F00000041000000220000003D0000003C
:1001E400320000001000000039000000210000006F
:1001F40012000000330000000000000011000000A5
:100204001B00000042000000140000003400000045
:10021400310000002C000000160000003C0000002B
:100224001F000000000000000B00000000000000A0
:1002340000000000000000000000000000000000BA
:1002440000000000000000000000000000000000AA
:10025400000000000300000000000000080000008F
:100264000C0000000000000000000000000000007E
:100274000000000000000000070000000100000072
:10028400000000000000000000000000000000006A
:100294001700000000000000000000000200000041
:1002A4000000000009000000180000000000000029
:1002B4001C00000019000000000000000000000005
:1002C40000000000000000000F00000026000000F5
:1002D40005000000200000001A00000000000000DB
:1002E4002700000000000000130000001D000000B3
:1002F4000A0000002D0000000E0000002400000091
:100304000600000004000000000000001E000000C1
:100314003600000015000000000000002B00000063
:10032400230000003A00000000000000000000006C
:080334000D0000003000000084
:10033C0000000000000000000000000000000000B1
:10034C00F00500000000000000000000120000009A
:10035C00100300000000000000000000120000006C
:10036C00620200000000000000000000120000000B
:10037C0081010000000000000000000012000000DD
:10038C001F0300000000000000000000120000002D
:10039C00F206000000000000000000001200000047
:1003AC0060060000000000000000000012000000C9
:1003BC0051040000000000000000000012000000CA
:1003CC009803000000000000000000001200000074
:1003DC0044010000000000000000000012000000BA
:1003EC00E601000000000000000000001200000008
:1003FC00C30000000000000000000000120000001C
:10040C00D8060000000000000000000012000000F0
:10041C00CB020000000000000000000012000000F1
:10042C00CD060000000000000000000012000000DB
:10043C005B00000000000000000000002200000033
:10044C002502000000000000000000001200000067
:10045C000A0700000000000000000000120000006D
:10046C00B103000024130100000000001200000082
:10047C000C0500000000000000000000120000004D
:10048C0090000000000000000000000012000000BE
:10049C00EB0600000000000000000000120000004D
:1004AC00D9040000286D02002C0000001100190076
:1004BC009A00000000000000000000001200000084
:1004CC0069000000000000000000000012000000A5
:1004DC00D206000000000000000000001200000026
:1004EC000F070000000000000000000012000000D8
:1004FC00C006000000000000000000001200000018
:10050C00DF060000000000000000000012000000E8
:10051C00FD030000000000000000000012000000BD
:10052C00E9020000000000000000000012000000C2
:10053C009F000000000000000000000022000000EE
:10054C006F0000000000000000000000120000001E
:10055C00C1040000000000000000000012000000B8
:10056C00FF0400000000000000000000120000006A
:10057C00EB0300000000000000000000120000006F
:10058C00B90600000000000000000000120000008E
:10059C0092040000000000000000000012000000A7
:1005AC00880600000000000000000000120000009F
:1005BC002D000000000000000000000020000000E2
:1005CC00A505000000000000000000001200000063
:1005DC0056010000000000000000000012000000A6
:1005EC00B401000000000000000000001200000038
:1005FC0037060000546D02002C0000001100190099
:10060C008300000000000000000000001200000049
:10061C00F6050000000000000000000012000000C1
:10062C0001010000000000000000000012000000AA
:10063C00E2050000000000000000000012000000B5
:10064C005105000000000000000000001200000036
:10065C00C7060000000000000000000012000000AF
:10066C00FC0600000000000000000000120000006A
:10067C00E406000000000000000000001200000072
:10068C000307000000000000000000001200000042
:10069C0063030000000000000000000012000000D6
:1006AC00980600000000000000000000120000008E
:1006BC0041040000000000000000000012000000D7
:1006CC004E030000000000000000000012000000BB
:1006DC0074000000C81401000000000012000000AB
:1006EC009105000000000000000000001200000056
:1006FC008B00000000000000000000001200000051
:10070C0011000000000000000000000020000000AC
:10071C00F0020000000000000000000012000000C9
:10072C00170700000000000000000000120000008D
:10073C00D7010000000000000000000020000000B5
:10074C00FD02000010150100000000001200000066
:10075C00410000000000000000000000200000002C
:10076C00006C6962707468726561642E736F2E30F0
:10077C00005F49544D5F6465726567697374657297
:10078C00544D436C6F6E655461626C65005F4A76C4
:10079C005F5265676973746572436C6173736573DB
:1007AC00005F49544D5F7265676973746572544D8F
:1007BC00436C6F6E655461626C6500707468726531
:1007CC0061645F657175616C00636C6F7365006F5C
:1007DC0070656E00707468726561645F63726561E8
:1007EC00746500636F6E6E6563740073656E640090
:1007FC006E616E6F736C6565700072656376005F19
:10080C005F707468726561645F6B65795F63726554
:10081C00617465006C6962737464632B2B2E736F47
:10082C002E36005F5A4E5374375F5F6378783131E0
:10083C00313262617369635F737472696E674963A5
:10084C0053743131636861725F7472616974734996
:10085C006345536149634545433145524B53345FBE
:10086C00005F5A4E4B5374375F5F63787831313188
:10087C003262617369635F737472696E6749635343
:10088C00743131636861725F747261697473496346
:10089C00455361496345453466696E6445524B5313
:1008AC00345F6A005F5F6378615F626567696E5F82
:1008BC006361746368005F5A4E4B537439626173A1
:1008CC0069635F696F734963537431316368617233
:1008DC005F747261697473496345456376624576EA
:1008EC00005F5A4E5374313462617369635F696699
:1008FC0073747265616D49635374313163686172ED
:10090C005F7472616974734963454535636C6F73C9
:10091C00654576005F5A4E5369357365656B67455F
:10092C0053743466706F734931315F5F6D627374E9
:10093C006174655F7445005F5F676D6F6E5F7374A4
:10094C006172745F5F005F5A4E4B5374375F5F6325
:10095C0078783131313262617369635F73747269B3
:10096C006E67496353743131636861725F7472618D
:10097C0069747349634553614963454535635F73D6
:10098C0074724576005F5A4E5374375F5F637878A4
:10099C003131313262617369635F737472696E678E
:1009AC00496353743131636861725F747261697445
:1009BC00734963455361496345454331454F53344E
:1009CC005F005F5A5374376765746C696E65496371
:1009DC0053743131636861725F7472616974734905
:1009EC0063455361496345455253743133626173B6
:1009FC0069635F6973747265616D49545F54305FEC
:100A0C004553375F524E5374375F5F63787831319B
:100A1C00313262617369635F737472696E674953D3
:100A2C00345F53355F54315F4545005F5A53743220
:100A3C00305F5F7468726F775F6C656E6774685F48
:100A4C006572726F72504B63005F5A646C50760023
:100A5C005F5A4E536149634543314576005F5F638E
:100A6C0078615F707572655F7669727475616C0020
:100A7C005F5F61656162695F617465786974005F6D
:100A8C005A4E5374313462617369635F696673746F
:100A9C007265616D496353743131636861725F745F
:100AAC0072616974734963454544314576005F5FF3
:100ABC006778785F706572736F6E616C6974795F5B
:100ACC007630005F5A4E5374313462617369635FE0
:100ADC00696673747265616D49635374313163680F
:100AEC0061725F74726169747349634545376973E8
:100AFC005F6F70656E4576005F5A537431375F5F78
:100B0C007468726F775F6261645F616C6C6F63763F
:100B1C00005F5A4E5374375F5F63787831313132EE
:100B2C0062617369635F737472696E67496353744E
:100B3C003131636861725F747261697473496345C2
:100B4C0053614963454544314576005F5F63786185
:100B5C005F656E645F636C65616E7570005F5A4EA5
:100B6C0053743674687265616431355F4D5F7374AC
:100B7C006172745F7468726561644553743130736B
:100B8C0068617265645F707472494E535F31305F97
:100B9C00496D706C5F62617365454550467676456C
:100BAC00005F5F6378615F656E645F636174636847
:100BBC00005F5A4E4B5374375F5F63787831313135
:100BCC003262617369635F737472696E67496353F0
:100BDC00743131636861725F7472616974734963F3
:100BEC004553614963454536737562737472456A42
:100BFC006A005F5A4E5374313462617369635F6982
:100C0C006673747265616D496353743131636861E5
:100C1C00725F7472616974734963454543314576FB
:100C2C00005F5A4E4B537439747970655F696E6608
:100C3C006F657145524B535F005F5A54564E3130BD
:100C4C005F5F637878616269763131375F5F636CBF
:100C5C006173735F747970655F696E666F45005F71
:100C6C005A4E536149634544314576005F5A4E53A1
:100C7C0074313462617369635F6966737472656140
:100C8C006D496353743131636861725F7472616969
:100C9C00747349634545346F70656E45504B6353AF
:100CAC007431335F496F735F4F70656E6D6F646540
:100CBC00005F5A4E4B5374375F5F63787831313134
:100CCC003262617369635F737472696E67496353EF
:100CDC00743131636861725F7472616974734963F2
:100CEC0045536149634545366C656E677468457656
:100CFC00005F5A4E537436746872656164346A6F5F
:100D0C00696E4576005F5A4E5374375F5F6378782F
:100D1C003131313262617369635F737472696E670A
:100D2C00496353743131636861725F7472616974C1
:100D3C00734963455361496345456153454F53348A
:100D4C005F005F5F6378615F72657468726F7700D4
:100D5C005F5A6E776A005F5A4E5374375F5F6378E1
:100D6C00783131313262617369635F737472696EA9
:100D7C0067496353743131636861725F747261697E
:100D8C007473496345536149634545433145504B41
:100D9C0063524B53335F005F5A54564E31305F5F92
:100DAC00637878616269763132305F5F73695F6353
:100DBC006C6173735F747970655F696E666F450003
:100DCC005F5A5374397465726D696E61746576001F
:100DDC006C69626D2E736F2E36006C69626763638B
:100DEC005F732E736F2E31005F5F61656162695FA7
:100DFC006C6469766D6F64005F5F61656162695FE9
:100E0C00756E77696E645F6370705F707231006CC1
:100E1C006962632E736F2E3600736F636B6574009B
:100E2C007374726370790068746F6E73007075748C
:100E3C00730061626F7274007072696E7466006D1B
:100E4C006D6170007374726C656E006D656D7365A9
:100E5C007400696E65745F61646472006D616C6CC2
:100E6C006F63006D756E6D61700061746F69006DFC
:100E7C00656D6D6F7665005F5F6C6962635F73743F
:100E8C006172745F6D61696E004743435F332E3549
:100E9C0000474C4942435F322E3400474C49424391
:100EAC0058585F332E342E31310043585841424943
:100EBC005F312E3300474C49424358585F332E3430
:100ECC002E3231004358584142495F41524D5F31F7
:100EDC002E332E3300474C49424358585F332E343F
:010EEC000005
:100EEE0000000200030004000200020005000200E0
:100EFE0004000200060004000400050002000500C4
:100F0E0007000400050004000200070005000600AB
:100F1E00070007000500050005000500040002009B
:100F2E00070007000200020006000500020008008C
:100F3E000000040004000200060007000400040084
:100F4E00060004000500050005000500020008006B
:100F5E000600060007000900070000000200050059
:060F6E0000000600000077
:100F7400010001007A0600001000000020000000BB
:100F84005526790B00000800290700000000000026
:100F9400010001000100000010000000200000001A
:100FA4001469690D0000070031070000000000000B
:100FB40001000100AF060000100000002000000046
:100FC4001469690D000005003107000000000000ED
:100FD40001000500B4000000100000000000000043
:100FE40061F89702000009003B07000010000000B0
:100FF400D3AF6B05000006004A0700001000000094
:1010040071F897020000040055070000100000006A
:10101400A3AF4908000003006407000010000000AB
:101024007429920800000200750700000000000007
:10103400206D020015400000286D02001417000006
:08104400546D0200142C0000A1
:10104C00306C020016010000346C02001602000025
:10105C00386C0200160300003C6C02001604000001
:10106C00406C020016050000446C020016060000DD
:10107C00486C0200160700004C6C020016080000B9
:10108C00506C020016090000546C0200160A000095
:10109C00586C0200160B00005C6C0200160C000071
:1010AC00606C0200160D0000646C0200160E00004D
:1010BC00686C0200160F00006C6C02001610000029
:1010CC00706C020016110000746C02001612000005
:1010DC00786C0200161300007C6C020016140000E1
:1010EC00806C020016150000846C020016160000BD
:1010FC00886C0200161800008C6C02001619000097
:10110C00906C0200161A0000946C0200161B000072
:10111C00986C0200161C00009C6C0200161D00004E
:10112C00A06C0200161E0000A46C0200161F00002A
:10113C00A86C020016200000AC6C02001621000006
:10114C00B06C020016220000B46C020016230000E2
:10115C00B86C020016240000BC6C020016250000BE
:10116C00C06C020016260000C46C0200162700009A
:10117C00C86C020016290000CC6C0200162A000074
:10118C00D06C0200162B0000D46C0200162D00004F
:10119C00D86C0200162E0000DC6C0200162F00002A
:1011AC00E06C020016300000E46C02001631000006
:1011BC00E86C020016320000EC6C020016330000E2
:1011CC00F06C020016340000F46C020016350000BE
:1011DC00F86C020016360000FC6C02001638000099
:1011EC00006D020016390000046D0200163A000072
:1011FC00086D0200163B00000C6D0200163C00004E
:10120C00106D0200163E0000146D0200163F000027
:10121C00186D0200164000001C6D02001641000003
:0C122C0008402DE9C50000EB0880BDE87B
:1012380004E02DE504E09FE50EE08FE008F0BEE550
:10124800DC59010000C68FE215CA8CE2DCF9BCE566
:1012580000C68FE215CA8CE2D4F9BCE500C68FE25D
:1012680015CA8CE2CCF9BCE500C68FE215CA8CE23F
:10127800C4F9BCE500C68FE215CA8CE2BCF9BCE52E
:1012880000C68FE215CA8CE2B4F9BCE500C68FE24D
:1012980015CA8CE2ACF9BCE500C68FE215CA8CE22F
:1012A800A4F9BCE500C68FE215CA8CE29CF9BCE53E
:1012B80000C68FE215CA8CE294F9BCE500C68FE23D
:1012C80015CA8CE28CF9BCE500C68FE215CA8CE21F
:1012D80084F9BCE500C68FE215CA8CE27CF9BCE54E
:1012E80000C68FE215CA8CE274F9BCE500C68FE22D
:1012F80015CA8CE26CF9BCE500C68FE215CA8CE20F
:1013080064F9BCE500C68FE215CA8CE25CF9BCE55D
:1013180000C68FE215CA8CE254F9BCE500C68FE21C
:1013280015CA8CE24CF9BCE500C68FE215CA8CE2FE
:1013380044F9BCE500C68FE215CA8CE23CF9BCE56D
:1013480000C68FE215CA8CE234F9BCE500C68FE20C
:1013580015CA8CE22CF9BCE500C68FE215CA8CE2EE
:1013680024F9BCE500C68FE215CA8CE21CF9BCE57D
:1013780000C68FE215CA8CE214F9BCE500C68FE2FC
:1013880015CA8CE20CF9BCE500C68FE215CA8CE2DE
:1013980004F9BCE500C68FE215CA8CE2FCF8BCE58E
:1013A80000C68FE215CA8CE2F4F8BCE500C68FE2ED
:1013B80015CA8CE2ECF8BCE500C68FE215CA8CE2CF
:1013C800E4F8BCE500C68FE215CA8CE2DCF8BCE59F
:1013D80000C68FE215CA8CE2D4F8BCE500C68FE2DD
:1013E80015CA8CE2CCF8BCE500C68FE215CA8CE2BF
:1013F800C4F8BCE500C68FE215CA8CE2BCF8BCE5AF
:1014080000C68FE215CA8CE2B4F8BCE500C68FE2CC
:1014180015CA8CE2ACF8BCE500C68FE215CA8CE2AE
:10142800A4F8BCE500C68FE215CA8CE29CF8BCE5BE
:1014380000C68FE215CA8CE294F8BCE500C68FE2BC
:1014480015CA8CE28CF8BCE500C68FE215CA8CE29E
:1014580084F8BCE500C68FE215CA8CE27CF8BCE5CE
:1014680000C68FE215CA8CE274F8BCE500C68FE2AC
:1014780015CA8CE26CF8BCE500C68FE215CA8CE28E
:1014880064F8BCE500C68FE215CA8CE25CF8BCE5DE
:1014980000C68FE215CA8CE254F8BCE500C68FE29C
:1014A80015CA8CE24CF8BCE500C68FE215CA8CE27E
:1014B80044F8BCE500C68FE215CA8CE23CF8BCE5EE
:1014C80000C68FE215CA8CE234F8BCE500C68FE28C
:1014D80015CA8CE22CF8BCE500C68FE215CA8CE26E
:1014E80024F8BCE500C68FE215CA8CE21CF8BCE5FE
:1014F80000C68FE215CA8CE214F8BCE500C68FE27C
:1015080015CA8CE20CF8BCE500C68FE215CA8CE25D
:0415180004F8BCE532
:10151C004FF0000B4FF0000E02BC6A4604B401B44D
:10152C00DFF810C04DF804CD0348044BFFF7DEEF95
:10153C00FFF716EFE958010099570100A95801006F
:10154C0014309FE514209FE503308FE0022093E7D1
:10155C00000052E31EFF2F01E6FFFFEAC856010010
:10156C00FC000000074B46F62850C0F202001B1A84
:10157C00062B05D940F20003C0F2000303B1184753
:10158C00704700BF2B6D020046F6285346F62850D4
:10159C00C0F20203C0F20200191A891001EBD171DA
:1015AC00491005D040F20003C0F2000303B1184704
:1015BC00704700BF10B546F68054C0F20204237881
:1015CC001BB9FFF7CFFF0123237010BD46F618306F
:1015DC0008B5C0F20200036813B9BDE80840D3E7B0
:1015EC0040F20003C0F20003002BF6D09847F4E75A
:1015FC0080B582B000AF78600A4A7B681A6045F605
:10160C00F400C0F20100FFF770EE7B684FF0FF3280
:10161C005A607B6800229A607B6818460837BD4682
:10162C0080BD00BF485A010080B582B000AF786021
:10163C00104A7B681A6045F63410C0F20100FFF7BF
:10164C0054EE7B685B68B3F1FF3F08D07B685B6846
:10165C001846FFF780EE7B684FF0FF325A6000238C
:10166C00002B02D07868FFF79AEE7B681846083793
:10167C00BD4680BD485A010080B582B000AF78608D
:10168C007868FFF7D1FF7868FFF788EE7B6818461B
:10169C000837BD4680BD00BF80B58AB000AFF8608A
:1016AC00B9607A60FB68BA689A6000220121022056
:1016BC00FFF798EE0246FB685A60FB685B68B3F173
:1016CC00FF3F07D145F65010C0F20100FFF70CEEBA
:1016DC00002339E007F11403102200211846FFF70C
:1016EC002EEE0223BB82FB689B689BB21846FFF769
:1016FC00BCEE0346FB827868FFF7DEED0346184626
:10170C00FFF7BCED0346BB61FB685B6807F1140196
:10171C0010221846FFF78AEE03467B627B6AB3F110
:10172C00FF3F10D145F69810C0F20100FFF7DCED39
:10173C00FB685B681846FFF70EEEFB684FF0FF3254
:10174C005A60002300E0012318462837BD4680BDAF
:10175C0080B586B000AFF860B9607A60FB685868F5
:10176C007A680023B968FFF7B6EE03467B617B69A4
:10177C00B3F1FF3F01D1002300E0012318461837D5
:10178C00BD4680BD80B586B000AFF860B9607A60A8
:10179C00FB6858687A680023B968FFF7D6ED0346F2
:1017AC007B617B69B3F1FF3F01D1002300E07B69D2
:1017BC0018461837BD4680BD80B582B000AF786042
:1017CC000F4A7B681A607B6800221A75786800F0F3
:1017DC0041F80346002B0CBF01230023DBB2002B86
:1017EC0008D07B6801221A7545F66020C0F2010012
:1017FC00FFF77AED7B6818460837BD4680BD00BF01
:10180C007C5B010080B582B000AF7860084A7B68D1
:10181C001A60786800F0E0F90023002B02D0786899
:10182C00FFF7BCED7B6818460837BD4680BD00BF8E
:10183C007C5B010080B582B000AF78607868FFF700
:10184C00E1FF7868FFF7AAED7B6818460837BD46BC
:10185C0080BD00BF80B5ADF5026D02AF3B1D1860B9
:10186C000023C7F8103845F67020C0F20100FFF7CE
:10187C003CED41F20201C0F2100145F68820C0F2A5
:10188C000100FFF798ED0346C7F80C38D7F80C3871
:10189C00DB0FDBB2002B01D0012373E041F6FF70AC
:1018AC00FFF7E8ED0346C7F81438D7F81438002BC7
:1018BC000CBF01230023DBB2002B01D0022361E01B
:1018CC00D7F81438C3F30B03002B0AD0D7F814380D
:1018DC00C3F30B03C3F58053D7F814281344C7F88C
:1018EC0014384FF0E1730193D7F80C38009311239F
:1018FC0003224FF48051D7F81408FFF744ED024649
:10190C003B1D1B685A603B1D1B685B6803F500623E
:10191C003B1D1B689A603B1D1B685A683B1D1B686E
:10192C009B68D7F8141845F69420C0F20100FFF715
:10193C00D0EC4FF40053C0F2F0130193D7F80C38ED
:10194C000093012303224FF480510020FFF71AED7E
:10195C0002463B1D1B681A613B1D1B681B6903F586
:10196C0040623B1D1B68DA603B1D1B6819693B1DFF
:10197C001B68DB681A4645F6BC20C0F20100FFF775
:10198C00A8EC0023184607F61807BD4680BD00BF1B
:10199C0080B58AB000AFF860B9607A603B60002314
:1019AC003B62FB681B7D83F00103DBB2002B61D132
:1019BC00BB685B11FB61BB6803F01F03DB10BB61F1
:1019CC00BB6803F007039B007B61B96845F6F82000
:1019DC00C0F20100FFF77CECFB689A68FB692421DC
:1019EC0001FB03F313447B62FB690A2B0ADDFB69E1
:1019FC000B3BFB61FB68DA68FB69242101FB03F3F9
:101A0C0013447B623A68B968F86800F037F87A6A70
:101A1C00BB699B0013441B683B6207227B6902FA7B
:101A2C0003F3DB431A463B6A13403B627B68012B92
:101A3C0006D17A6ABB699B0013443A6A1A601AE0B1
:101A4C007B68002B0ED101227B6902FA03F31A4644
:101A5C003B6A13433B627A6ABB699B0013443A6A44
:101A6C001A6008E0782145F61430C0F20100FFF747
:101A7C0030EC00E000BF2837BD4680BD80B58AB091
:101A8C0000AFF860B9607A6000233B62FB681B7D95
:101A9C0083F00103DBB2002B4AD1BB685B11FB6105
:101AAC00BB6803F01F031B11BB61BB6803F00F0382
:101ABC005B007B6145F64430C0F20100FFF714EC8B
:101ACC00FB689A68FB69242101FB03F313447B62D6
:101ADC00FB690A2B0ADDFB690B3BFB61FB68DA68CF
:101AEC00FB69242101FB03F313447B627B6A03F142
:101AFC001C02BB699B0013441B683B6203227B697D
:101B0C0002FA03F3DB431A463B6A13403B627A68E2
:101B1C007B6902FA03F31A463B6A13433B627B6A06
:101B2C0003F11C02BB699B0013443A6A1A6000E083
:101B3C0000BF2837BD4680BD80B588B000AFF860C7
:101B4C00B9607A60FB681B7D83F00103DBB2002B6C
:101B5C003DD1BB685B11BB61BB6803F01F037B61AC
:101B6C007B69BA69B96845F65830C0F20100FFF7D5
:101B7C00B0EBFB689A68BB69242101FB03F31344A7
:101B8C00FB61BB690A2B0ADDBB690B3BBB61FB68C4
:101B9C00DA68BB69242101FB03F31344FB617B6806
:101BAC00002B0AD1FB691B6901217A6901FA02F247
:101BBC00D2431A40FB691A610AE0FB691B690121D7
:101BCC007A6901FA02F21A43FB691A6100E000BF5C
:101BDC002037BD4680BD00BF80B582B000AF7860B5
:101BEC007B681B7D83F00103DBB2002B0ED17B687D
:101BFC005B684FF480511846FFF748EC7B681B6913
:101C0C004FF480511846FFF742EC00E000BF083754
:101C1C00BD4680BD80B483B000AF786039603B684E
:101C2C0018460C37BD465DF8047B704780B483B012
:101C3C0000AF7860396000BF0C37BD465DF8047B9F
:101C4C00704700BF90B482B000AF786039603B68D9
:101C5C00D3E900347A68C2E900347B681846083747
:101C6C00BD4690BC704700BF90B400AF4FF000036E
:101C7C004FF0000418462146BD4690BC704700BF8B
:101C8C0090B482B000AF78607B68D3E9003418461A
:101C9C0021460837BD4690BC704700BF90B482B057
:101CAC0000AF786039603B68D3E900347A68C2E9E8
:101CBC0000347B6818460837BD4690BC704700BF9F
:101CCC0090B482B000AF78607B68D3E900341846DA
:101CDC0021460837BD4690BC704700BF80B400AFAA
:101CEC0045F6AC63C0F201031B68002B14BF012343
:101CFC000023DBB21846BD465DF8047B704700BF7D
:101D0C0080B582B000AF7860396039687868FFF7C9
:101D1C00F2EA034618460837BD4680BD80B582B04E
:101D2C0000AF786039603A687B68BFF35B8F53E82B
:101D3C00001F01EB020043E8000EBEF1000FF6D1CC
:101D4C00BFF35B8F0B4618460837BD4680BD00BFFE
:101D5C0080B485B000AF786039607B681B68FB602D
:101D6C007B681A683B681A447B681A60FB681846E3
:101D7C001437BD465DF8047B704700BF80B582B058
:101D8C0000AF78603960FFF7A9FF0346002B14BF42
:101D9C0001230023DBB2002B05D039687868FFF7EC
:101DAC00BDFF034604E039687868FFF7D1FF0346AE
:101DBC0018460837BD4680BD80B483B000AF78604C
:101DCC007B6800221A607B6818460C37BD465DF8AC
:101DDC00047B704780B582B000AF786039607B6857
:101DEC003A6811461846FFF78BFF0346002B14BFC9
:101DFC0001230023DBB218460837BD4680BD00BF67
:101E0C0080B582B000AF7860786800F031F8034696
:101E1C00002B01D0FFF738EA7B6818460837BD461F
:101E2C0080BD00BF80B582B000AF78603960786843
:101E3C0000F01EF80346002B01D0FFF726EA3968A4
:101E4C00786800F005F87B6818460837BD4680BDF9
:101E5C0080B582B000AF786039607B683A68114613
:101E6C00184600F019FB00BF0837BD4680BD00BF07
:101E7C0080B584B000AF786007F10C031846FFF70B
:101E8C009BFF7B68F9681868FFF7A4FF034683F093
:101E9C000103DBB218461037BD4680BD80B582B059
:101EAC0000AF78607B680433184600F015FB7B6844
:101EBC0018460837BD4680BD80B582B000AF78604B
:101ECC007B681846FFF7EAFF7B6818460837BD4663
:101EDC0080BD00BF80B582B000AF7860094A7B68D6
:101EEC001A607B6804331846FFF7E6FF0023002BCB
:101EFC0002D07868FFF752EA7B6818460837BD466F
:101F0C0080BD00BFA85C010080B582B000AF7860D6
:101F1C007868FFF7DFFF7868FFF740EA7B681846C0
:101F2C000837BD4680BD00BF80B483B000AF786079
:101F3C007B685B6A18460C37BD465DF8047B7047BE
:101F4C0080B483B000AF78600B46FB707B68FA7886
:101F5C0083F8282000BF0C37BD465DF8047B704722
:101F6C0080B483B000AF78607B6893F82830184653
:101F7C000C37BD465DF8047B704700BF80B582B05E
:101F8C0000AF78607B681846FFF716FF7B68184631
:101F9C000837BD4680BD00BF80B582B000AF786009
:101FAC0039601A4A7B681A607B6804331846FFF75D
:101FBC00E5FF7B680833184600F0A0FA7B683A68A6
:101FCC005A617B6800229A617B6800221A777B68D1
:101FDC0000225A777B6800229A777B680022DA7796
:101FEC00786800F061F87B680BE07B680833184672
:101FFC0000F092FA7B6804331846FFF701FFFFF7F5
:10200C00ECE918460837BD4680BD00BF985C01005E
:10201C0080B582B000AF78601A4A7B681A607B6822
:10202C0004331846FFF724FF0346002B04D07B68CB
:10203C0004331846FFF748EA7B689B69002B0CD0E9
:10204C007B689B69002B08D07B689B691B680433F9
:10205C001B687A689269104698477B680833184663
:10206C0000F05AFA7B6804331846FFF7C9FE0023C8
:10207C00002B02D07868FFF792E97B681846083786
:10208C00BD4680BD985C010080B582B000AF786021
:10209C007868FFF7BDFF7868FFF780E97B68184622
:1020AC000837BD4680BD00BF90B589B000AF7860E1
:1020BC007B689B69002B36D11820FFF7C2E80346DA
:1020CC001C462046FFF778FB7B689C617B689B690C
:1020DC00002B06D145F69430C0F20100FFF704E95D
:1020EC004EE07B689869002300224FF48A71FFF759
:1020FC004FFC7B6898690023002240F21111FFF716
:10210C0047FC7B6898690023002240F21511FFF709
:10211C003FFC7B68986900230022F921FFF738FC0B
:10212C00786800F073F97B681C1D42F2B913C0F299
:10213C0001037B610023BB6107F10C0307F114025F
:10214C0092E8030083E803007B68FB6107F11C0243
:10215C0007F10C0107F10803184600F02DFA07F1FE
:10216C00080319462046FFF75DFE07F108031846E1
:10217C00FFF746FE04E02046FFF710E9FFF72CE9D5
:10218C002437BD4690BD00BF90B482B000AF7860DC
:10219C0039603B681B684FEAE3747A68C2E9003423
:1021AC007B6818460837BD4690BC704780B590B028
:1021BC0000AF7860002387F83F304FF47A737B626E
:1021CC0007F1240207F1180311461846FFF7DCFF4C
:1021DC0007F11803184600F095FB7B685B691846FD
:1021EC00FFF7BEFE0346002B00F090807B685B6916
:1021FC001846FFF799FE03467B617B685B690021FB
:10220C001846FFF79DFE7B680833184600F0BEFBAE
:10221C0003463B2B94BF01230023DBB2002B08D0D9
:10222C007B68083307F114021146184600F0C0FB16
:10223C0016E07B68083397F83F201146184600F0EB
:10224C00D7FB02467B69136097F83F30013387F860
:10225C003F3097F83F303B2B02D9002387F83F30B3
:10226C000023BB6300237B637B6808333B63386BC1
:10227C0000F0CEFB03463B61386B00F0D9FB034604
:10228C00FB6007F10C0207F110031146184600F031
:10229C00E1FB0346002B18D007F11003184600F0A1
:1022AC0001FC03461B68FB62BA6BFB6A1344BB63FD
:1022BC00F96A45F6B430C0F20100FFF70AE807F1FD
:1022CC001003184600F0DEFBDBE77B68083318468A
:1022DC0000F05CFB0346BB62BB6A002B04DDBA6BEF
:1022EC00BB6A92FBF3F37B637B6BBA6BB96A45F603
:1022FC00B830C0F20100FEF7ECEFBB6A3B2B7FF766
:10230C005CAF796B786800F003F856E700BF54E7D0
:10231C0080B584B000AF786039603B685B42FB608D
:10232C00F96845F6E830C0F20100FEF7D2EFFB6821
:10233C0040F6C412934208DD45F60040C0F201009D
:10234C00FEF7D2EF786800F017F8FB68C72B08DCB3
:10235C0045F60C40C0F20100FEF7C6EF786800F0BD
:10236C0055F845F62040C0F20100FEF7BEEF00BF65
:10237C001037BD4680BD00BF80B586B000AF786019
:10238C007B689B7F83F00103DBB2002B39D07B6829
:10239C009B69012240F211111846FFF7CDFB7B68B7
:1023AC009B69012240F215111846FFF7C5FB7B68AB
:1023BC009B690022F9211846FFF7BEFB64237B6161
:1023CC0007F1140207F1080311461846FFF7DCFE6B
:1023DC0007F10803184600F095FA7B689B69002208
:1023EC004FF48A711846FFF7A7FB7B6801229A7796
:1023FC007B680022DA777B6800225A777B680022A0
:10240C001A7700BF1837BD4680BD00BF80B582B0BB
:10241C0000AF78607B68DB7F83F00103DBB2002BBD
:10242C002AD07B689B6901224FF48A711846FFF70A
:10243C0083FB7B689B69012240F211111846FFF760
:10244C007BFB7B689B69012240F215111846FFF754
:10245C0073FB7B689B690122F9211846FFF76CFB23
:10246C007B680122DA777B6800229A777B680022EE
:10247C005A777B6800221A7700BF0837BD4680BDAB
:10248C0080B483B000AF78607B6818460C37BD46CB
:10249C005DF8047B704700BF80B584B000AF7860F6
:1024AC0039607868FFF7ECFF03461B68FB603868FF
:1024BC00FFF7E6FF02467B6812681A6007F10C030F
:1024CC001846FFF7DDFF02463B6812681A6000BF32
:1024DC001037BD4680BD00BF80B582B000AF7860BC
:1024EC007B681B68002B04D07B681B68184600F0C7
:1024FC00E5FA7B6818460837BD4680BD80B582B0CA
:10250C0000AF78607B68184600F016FB7B681846B5
:10251C000837BD4680BD00BFB0B582B000AF786053
:10252C007B681C687B685D687B68184600F02CFB38
:10253C0003461A462946204600F032FB7B681846B3
:10254C0000F008FB7B6818460837BD46B0BD00BFDD
:10255C0080B483B000AF78607B6818460C37BD46FA
:10256C005DF8047B704700BF80B483B000AF786027
:10257C007B6818460C37BD465DF8047B704700BF7E
:10258C0080B582B000AF78607B6804331846FFF7E3
:10259C00A3FF7B6818460837BD4680BD80B582B066
:1025AC0000AF78607B681846FFF7EAFF7B68184637
:1025BC000837BD4680BD00BF90B58DB000AFF86048
:1025CC00B9607A60FB681846FFF7F6FBB868FFF74E
:1025DC00BFFF04467868FFF7C7FF024607F12403E4
:1025EC002146184600F0C6FB07F11C0307F1240234
:1025FC00F968184600F0E8FB07F11C0207F1140318
:10260C001146184600F000FC07F1140341F2C842D1
:10261C00C0F201021946F868FEF7BAEE07F114038E
:10262C001846FFF749FC07F11C031846FFF7B6FFE5
:10263C00FB680BE007F114031846FFF73DFC07F1AC
:10264C001C031846FFF7AAFFFEF7C6EE18463437F0
:10265C00BD4690BD90B482B000AF786039603B68E5
:10266C00D3E900347A68C2E900347B68184608372D
:10267C00BD4690BC704700BF90B585B000AF786088
:10268C00FFF7F2FA03460C46C7E9023407F10803D8
:10269C0019467868FFF7DEFF78681437BD4690BDA1
:1026AC0090B482B000AF78607B68D3E900341846F0
:1026BC0021460837BD4690BC704700BFF0B587B0C7
:1026CC0000AF786039607B68D3E90034C7E9023425
:1026DC0007F108031846FFF7E3FF05460E463B6873
:1026EC00D3E90034C7E9043407F110031846FFF7A7
:1026FC00D7FF03460C469D4276EB0403B4BF01237F
:10270C000023DBB218461C37BD46F0BD80B582B045
:10271C0000AF7860396079683868FFF7CFFF0346FF
:10272C0083F00103DBB218460837BD4680BD00BFFD
:10273C0090B585B000AF786039603868FFF7B0FFAE
:10274C004FF47A724FF00003FEF758EE03460C4636
:10275C00C7E9023407F1080319467868FFF79EFAB7
:10276C0078681437BD4690BD80B582B000AF7860F4
:10277C0039607B6839681846FFF7DAFF78680837E4
:10278C00BD4680BD2DE9F04385B000AF786039605F
:10279C003868FFF795FA0A4601460B4614464FEA8D
:1027AC00441949EAD3694FEA431843464C465B1A2D
:1027BC0064EB0204DB1844EB0404DB1844EB040464
:1027CC005B1844EB0204E60046EA5376DD002B4628
:1027DC003446C7E9023407F1080319467868FFF755
:1027EC0039FF78681437BD46BDE8F08380B582B0F8
:1027FC0000AF786039607B6839681846FFF7C2FF14
:10280C0078680837BD4680BD90B585B000AF78605C
:10281C00396007F1080339681846FFF7E7FF07F13D
:10282C0008031846FFF73CFF03460C467A68C2E9DA
:10283C0000347B6818461437BD4690BDF0B58BB09C
:10284C0000AFF860B9607A60BB68D3E90034C7E9BF
:10285C00063407F118031846FFF722FF05460E460B
:10286C0007F1200379681846FFF7CEFF07F1200324
:10287C001846FFF715FF03460C46EB1A66EB0404EB
:10288C00C7E9043407F110031946F868FFF7E2FEB4
:10289C00F8682C37BD46F0BD90B585B000AF7860B8
:1028AC0039603868FFF7FCFE03460C4644F24022C0
:1028BC00C0F20F0202FB04F1002202FB03F21144EE
:1028CC0044F24022C0F20F02A3FB02340A19144650
:1028DC00C7E9023407F1080319467868FFF7B2F923
:1028EC0078681437BD4690BD80B582B000AF786073
:1028FC0039607B6839681846FFF7CEFF786808376F
:10290C00BD4680BD90B58DB000AF786007F1200357
:10291C001846FFF7B1FE07F1200319467868FFF758
:10292C00F5FE0346002B2CD107F1180379681846E5
:10293C00FFF71AFF07F1280307F118027968184608
:10294C00FFF77CFF07F1100307F128021146184628
:10295C00FFF7CAFF07F118031846FFF7B1F9034652
:10296C000C46BB6007F110031846FFF789F90346C4
:10297C000C46FB6007F1080300211846FEF7D8EC63
:10298C0000E000BF3437BD4690BD00BF80B483B0BB
:10299C0000AF78607B685B681A467B681B68D31A4B
:1029AC009B1018460C37BD465DF8047B704700BF82
:1029BC0080B582B000AF786039607B685A687B68FC
:1029CC009B689A420CD078687B685B683A681946B9
:1029DC0000F03AFA7B685B681A1D7B685A6003E06A
:1029EC003968786800F044FA00BF0837BD4680BDEE
:1029FC0080B483B000AF786039607B681A683B683C
:102A0C009B00134418460C37BD465DF8047B704799
:102A1C0080B584B000AF78607A6807F10C0311467A
:102A2C00184600F0B9FAFB6818461037BD4680BD51
:102A3C0080B584B000AF78607B681A1D07F10C0379
:102A4C001146184600F0A8FAFB6818461037BD4628
:102A5C0080BD00BF90B583B000AF786039607868F6
:102A6C0000F0AAFA03461C68386800F0A5FA034681
:102A7C001B689C4214BF01230023DBB218460C37A1
:102A8C00BD4690BD80B483B000AF78607B681B6896
:102A9C001A1D7B681A607B6818460C37BD465DF8BA
:102AAC00047B704780B483B000AF78607B681B6890
:102ABC0018460C37BD465DF8047B704780B582B074
:102ACC0000AF78607B6804334FF0FF311846FFF796
:102ADC0055F90346012B0CBF01230023DBB2002B5D
:102AEC001AD07B681B6808331B68786898477B682A
:102AFC0008334FF0FF311846FFF740F90346012B1E
:102B0C000CBF01230023DBB2002B05D07B681B68B4
:102B1C000C331B687868984700BF0837BD4680BDEA
:102B2C0080B582B000AF7860786800F079FA7B6885
:102B3C0018460837BD4680BD80B582B000AF7860BE
:102B4C007B68184600F056FA7B6818460837BD4675
:102B5C0080BD00BF80B582B000AF78607B6819681B
:102B6C007B689B681A467B681B68D31A9B101A46B5
:102B7C00786800F061FA7B681846FFF7D1FF7B6834
:102B8C0018460837BD4680BD80B483B000AF78606E
:102B9C007B6818460C37BD465DF8047B704700BF58
:102BAC0080B584B000AFF860B9607A60B968F86835
:102BBC0000F056FA00BF1037BD4680BD80B483B01C
:102BCC0000AF78607B6818460C37BD465DF8047B17
:102BDC00704700BF80B582B000AF78607B68184644
:102BEC00FFF7ECFF034618460837BD4680BD00BF13
:102BFC0080B582B000AF786039603868FFF7B4FCFC
:102C0C0003461A687B681A607B6818460837BD460D
:102C1C0080BD00BF90B583B000AF786039607C6830
:102C2C003868FFF7D7FF03461846FFF79DFC0346AD
:102C3C0019462046FFF7DCFF7B6818460C37BD466B
:102C4C0090BD00BF80B483B000AF78607B6818463D
:102C5C000C37BD465DF8047B704700BF80B483B071
:102C6C0000AF78607B6818460C37BD465DF8047B76
:102C7C00704700BF80B483B000AF78607B681846A3
:102C8C000C37BD465DF8047B704700BF80B582B041
:102C9C0000AF78607B6804331846FFF7EBFF034600
:102CAC0018460837BD4680BD80B483B000AF78604D
:102CBC007B6818460C37BD465DF8047B704700BF37
:102CCC0080B582B000AF786039603868FFF7ECFFF0
:102CDC0002467B6892E8030083E803007B68184691
:102CEC000837BD4680BD00BF90B583B000AF78609B
:102CFC0039607C683868FFF7A5FF03461846FFF774
:102D0C00ADFF034619462046FFF784FF7B681C1D68
:102D1C003868FFF7BBFF03461846FFF7C5FF0346AD
:102D2C0019462046FFF7CCFF7B6818460C37BD468A
:102D3C0090BD00BF80B582B000AF786039607B6811
:102D4C003A6811461846FFF7CFFF7B6818460837DC
:102D5C00BD4680BD80B582B000AF786039607B68BD
:102D6C003A6811461846FFF7E5FF7B6818460837A6
:102D7C00BD4680BD80B586B000AFF860B9607A60A2
:102D8C00B868FFF7E5FB024607F1100306CA1846C0
:102D9C0000F086F97868FFF7E7FB024607F11003AD
:102DAC001946F86800F0DAF9F8681837BD4680BDA6
:102DBC0080B483B000AF78607B6818460C37BD4692
:102DCC005DF8047B704700BF80B584B000AFF8603D
:102DDC00B9607A607868FFF7EBFF0246FB68114632
:102DEC00184600F0D5F9F8681037BD4680BD00BF15
:102DFC0080B483B000AF78607B6818460C37BD4652
:102E0C005DF8047B704700BF90B583B000AF78606D
:102E1C0039607C683868FFF7EBFF0346194620469B
:102E2C0000F0EAF97B6818460C37BD4690BD00BF30
:102E3C0080B483B000AF78607B6818460C37BD4611
:102E4C005DF8047B704700BF80B584B000AFF860BC
:102E5C00B9607A607868FFF7EBFF03461A46B968E9
:102E6C00F86800F0E7F900BF1037BD4680BD00BF21
:102E7C00B0B586B000AF7860396045F64442C0F218
:102E8C0001020121786800F0EDF903463B617B6893
:102E9C003969184600F02EFA0346FB60FB687B612B
:102EAC007C687868FFF772FD03469B00FA68D518BA
:102EBC003868FFF7BDFF03461A4629462046FFF740
:102ECC00C3FF00237B617B681C687B685D687B6843
:102EDC001846FFF759FE0346FA682946204600F0CB
:102EEC001DFA03467B617B6904337B617B681C683C
:102EFC007B685D687B681846FFF746FE03461A46FA
:102F0C0029462046FFF74CFE78687B6819687B6879
:102F1C009B681A467B681B68D31A9B101A4600F0F4
:102F2C008BF87B68FA681A607B687A695A603B692F
:102F3C009B00FA681A447B689A6029E0034618469D
:102F4C00FEF7B4E97B69002B0CD17C687868FFF73D
:102F5C001DFD03469B00FA6813441946204600F0F9
:102F6C00F7F909E07B681846FFF70EFE03461A4690
:102F7C007969F868FFF714FE7B683A69F9681846B6
:102F8C0000F05AF8FEF764EAFEF78CEAFEF724EA42
:102F9C001837BD46B0BD00BF80B483B000AF7860B9
:102FAC0039603B681A687B681A607B6818460C3776
:102FBC00BD465DF8047B704780B483B000AF786089
:102FCC007B6818460C37BD465DF8047B704700BF24
:102FDC0080B582B000AF78607B68002B05D07B6831
:102FEC001B6804331B687868984700BF0837BD46D8
:102FFC0080BD00BF80B582B000AF7860786800F00B
:10300C00D9F97B6800221A607B6800225A607B68C1
:10301C0000229A607B6818460837BD4680BD00BF09
:10302C0080B582B000AF7860786800F0CFF97B682B
:10303C0018460837BD4680BD80B584B000AFF86037
:10304C00B9607A60BB68002B05D0FB687A68B968F8
:10305C00184600F0C7F900BF1037BD4680BD00BF51
:10306C0080B582B000AF786039603968786800F05C
:10307C00C9F900BF0837BD4680BD00BF80B584B01C
:10308C0000AFF8603B1D83E80600F8683B1D93E831
:10309C00060000F0DBF9FB6818461037BD4680BD12
:1030AC0080B584B000AFF8603B1D83E806003B1D83
:1030BC0093E80600F868FFF7E1FFF8681037BD46A3
:1030CC0080BD00BF90B583B000AF786039607C687C
:1030DC003868FFF749FA034619462046FFF788FD82
:1030EC007B6818460C37BD4690BD00BF90B585B0C7
:1030FC0000AFF860B9607A60FC687868FFF734FA62
:10310C00034619462046FFF7DDFFFB681C1DB86817
:10311C00FFF7CAFD034619462046FFF7D1FDFB68B1
:10312C0018461437BD4690BDB0B584B000AFF860FA
:10313C00B9607A60FC68B868FFF7B6FD0546786838
:10314C00FFF712FA03461A4629462046FFF7CEFF30
:10315C00FB6818461037BD46B0BD00BFB0B584B093
:10316C0000AFF860B9607A60FC68B868FFF79CFD46
:10317C0005467868FFF7F8F903461A4629462046B3
:10318C00FFF7D2FFFB6818461037BD46B0BD00BF35
:10319C0080B584B000AF7860396007F10C03184635
:1031AC0000F06AF93868FFF703FE02467B6807F106
:1031BC000C01184600F078F907F10C03184600F0E2
:1031CC0067F906E007F10C03184600F061F9FEF709
:1031DC0004E978681037BD4680BD00BF80B483B069
:1031EC0000AF78607B6800221A607B6818460C3749
:1031FC00BD465DF8047B704780B582B000AF786047
:10320C0039603B681A687B681A607B68043318461F
:10321C00FFF7E4FF7B681A1D3B6804331946104620
:10322C0000F056F93B6800221A607B681846083794
:10323C00BD4680BD90B585B000AFF860B9607A60CE
:10324C007868FFF7F5FD03461C68BB681946042037
:10325C00FEF7E0FC0346002B00D01C6000BF1437C7
:10326C00BD4690BD90B587B000AFF860B9607A608C
:10327C00F86800F043F90446F868FFF787FB03464B
:10328C00E21ABB689A4234BF01230023DBB2002B45
:10329C0002D07868FEF722E8F868FFF777FB04465F
:1032AC00F868FFF773FB03463B6107F1080207F16F
:1032BC0010031146184600F033F903461B682344EB
:1032CC007B61F868FFF762FB02467B699A4206D87D
:1032DC00F86800F013F902467B699A4204D2F86848
:1032EC0000F00CF9034600E07B6918461C37BD461C
:1032FC0090BD00BF80B582B000AF786039603B688C
:10330C00002B06D07B683968184600F01DF903467F
:10331C0000E0002318460837BD4680BD90B585B047
:10332C0000AFF860B9607A603B60F86800F01CF997
:10333C000446B86800F018F901463B687A682046E4
:10334C0000F022F9034618461437BD4690BD00BF65
:10335C0080B582B000AF786039603968786800F069
:10336C0025F900BF0837BD4680BD00BF80B582B0CF
:10337C0000AF7860064A7B681A600023002B02D0ED
:10338C007868FEF70CE87B6818460837BD4680BDA8
:10339C00BC5C010080B582B000AF78607868FFF744
:1033AC00E5FF7868FDF7FAEF7B6818460837BD46ED
:1033BC0080BD00BF80B582B000AF7860786800F047
:1033CC0001F97B6818460837BD4680BD80B483B0D0
:1033DC0000AF78607B6818460C37BD465DF8047BFF
:1033EC00704700BF80B584B000AFF860B9607A60F8
:1033FC007A68B968F86800F0F1F800BF1037BD467C
:10340C0080BD00BF80B483B000AF7860396000BF6E
:10341C000C37BD465DF8047B704700BF80B483B0A9
:10342C0000AF78607B6818460C37BD465DF8047BAE
:10343C00704700BF80B582B000AF78607868FFF746
:10344C00EDFF7B6818460837BD4680BD80B584B05B
:10345C0000AFF8603B1D83E80600F868FFF7EAFF51
:10346C00FB681A463B1D93E8030082E80300FB68E7
:10347C0018461037BD4680BD80B582B000AF78606D
:10348C00786800F0B9F87B6818460837BD4680BDEF
:10349C0080B582B000AF7860786800F0B9F87B68CE
:1034AC0018460837BD4680BD90B587B000AFF860B0
:1034BC00B9607A607868FFF77BFC0346BA682146EE
:1034CC00F86800F0B1F8F8681C37BD4690BD00BF35
:1034DC0080B485B000AF786039603B681B68FB60D6
:1034EC007B681A683B681A607B68FA681A6000BFD0
:1034FC001437BD465DF8047B704700BF80B582B0C1
:10350C0000AF78607B68184600F0B0F803461846A8
:10351C0000F0A0F8034618460837BD4680BD00BF32
:10352C0080B483B000AF786039607B681A683B6800
:10353C001B689A4201D23B6800E07B6818460C3746
:10354C00BD465DF8047B704780B582B000AF7860F3
:10355C00396000223968786800F094F80346184600
:10356C000837BD4680BD00BF80B584B000AF786021
:10357C0007F10C037968184600F0A2F8FB681846AE
:10358C001037BD4680BD00BF80B584B000AFF86079
:10359C00B9607A603B607A68B968F86800F0A0F8A6
:1035AC00034618461037BD4680BD00BF80B483B0BB
:1035BC0000AF7860396000BF0C37BD465DF8047B06
:1035CC00704700BF80B483B000AF78607B6818464A
:1035DC000C37BD465DF8047B704700BF80B584B0E6
:1035EC0000AFF860B9607A60B868FDF7D8EE00BF3C
:1035FC001037BD4680BD00BF80B483B000AF78608B
:10360C007B6818460C37BD465DF8047B704700BFDD
:10361C0080B483B000AF78607B6818460C37BD4629
:10362C005DF8047B704700BFB0B584B000AFF860A4
:10363C0039727A603B60FC683868FFF7B9FB034667
:10364C007A682946204600F05DF8FB68184610376A
:10365C00BD46B0BD80B582B000AF7860786800F030
:10366C0083F8034618460837BD4680BD80B483B046
:10367C0000AF78607B6818460C37BD465DF8047B5C
:10368C00704700BF80B584B000AFF860B9607A6055
:10369C00F86800F069F80246BB689A4234BF01230F
:1036AC000023DBB2002B01D0FDF7FAEDBB689B00C9
:1036BC001846FDF7C6ED034618461037BD4680BDCB
:1036CC0080B483B000AF786039607B683A681A6068
:1036DC007B6818460C37BD465DF8047B704700BF0D
:1036EC0080B586B000AFF860B9607A600123FB75D5
:1036FC007A68B968F86800F043F80346184618373A
:10370C00BD4680BDB0B588B002AFF86039727A6042
:10371C003B60FB6800221A60FB681C1D3868FFF7D1
:10372C0047FB034600937B6800222946204600F0A5
:10373C0043F8FB68043345F67451C0F20101184696
:10374C0000F0AEF87861FB687A691A60FB68181DA6
:10375C00FB681968FB681B681A4600F0BBF8FB682D
:10376C0018461837BD46B0BD80B483B000AF786042
:10377C006FF0404318460C37BD465DF8047B70472C
:10378C0080B584B000AFF860B9607A607A68B968C7
:10379C00F86800F0A9F8034618461037BD4680BDFE
:1037AC0080B483B000AF78607B6818460C37BD4698
:1037BC005DF8047B704700BF2DE9F0418AB000AF83
:1037CC00F86039727A603B60FB6800221A6007F17E
:1037DC001C033968184600F09FF807F1140307F131
:1037EC001C021146184600F0B1F807F114031846F4
:1037FC0000F0D6F803467B623868FFF7D1FF02462B
:10380C0007F120031146184600F0DAF807F12006FC
:10381C00386CFFF7CDFA80467D6A29462420FEF7E6
:10382C00F9F90446002C04D042463146204600F0FB
:10383C00EDF807F120031846FFF72AFEFB687A6AB9
:10384C001A6007F114030021184600F021F907F162
:10385C001403184600F08EF807F11C03184600F00C
:10386C0069F8FB6816E029462046FEF7DFF907F1F8
:10387C0020031846FFF70CFEFFE707F11403184668
:10388C0000F078F8FFE707F11C03184600F052F837
:10389C00FDF7A2ED18462837BD46BDE8F08100BF04
:1038AC0080B582B000AF786039607B681B68002BF4
:1038BC000BD07B681B681B6810331B687A68126816
:1038CC00396810469847034600E00023184608372D
:1038DC00BD4680BD0FB480B400AF00BFBD465DF8DF
:1038EC00047B04B0704700BF90B585B000AFF860A2
:1038FC00B9607A60F86800F0DBF80446B86800F04C
:10390C00D7F803467A681946204600F0DDF80346DE
:10391C0018461437BD4690BD80B582B000AF7860B4
:10392C003960786800F0ECF87B6818460837BD46BB
:10393C0080BD00BF80B582B000AF7860786800F0C1
:10394C00EBF87B6818460837BD4680BD80B582B061
:10395C0000AF786039600121386800F0E9F803465F
:10396C001A463968786800F0F3F878680837BD466D
:10397C0080BD00BF80B582B000AF78607B685B68AB
:10398C00002B07D07B6818687B685B68012219469E
:10399C0000F0F2F87B6818460837BD4680BD00BFC2
:1039AC0080B582B000AF78607B685B681946786838
:1039BC0000F0F2F8034618460837BD4680BD00BF3C
:1039CC0080B582B000AF786039603968786800F0F3
:1039DC00EFF87B6818460837BD4680BD80B582B0CD
:1039EC0000AF78607868FFF753FD7B68184608379E
:1039FC00BD4680BD80B582B000AF78607868FFF7B7
:103A0C00EDFF7B6818460837BD4680BD90B587B082
:103A1C0000AFF860B9607A60FB68184600F0E0F817
:103A2C001A4AFB681A60FB6803F10C0407F11403D3
:103A3C00B9681846FFF7C4FF07F11403194620466E
:103A4C0000F0FEF807F114031846FFF721FDF868A3
:103A5C0000F008F904467868FFF7AAF903461A46FD
:103A6C002146B86800F00CF9FB680AE0FB680C33DF
:103A7C001846FFF7BFFFFB681846FFF777FCFDF70A
:103A8C00ACEC18461C37BD4690BD00BF685C01000D
:103A9C0080B483B000AF786039607B6800225A60D4
:103AAC007B6818460C37BD465DF8047B704700BF39
:103ABC0080B582B000AF7860786800F0F5F8034606
:103ACC0018460837BD4680BDB0B584B000AFF8606D
:103ADC00B9607A60F86800F0F5F80446B86800F050
:103AEC00F1F80546786800F0EDF803461A462946C9
:103AFC00204600F0F3F8034618461037BD46B0BD1B
:103B0C0080B483B000AF78607B6818460C37BD4634
:103B1C005DF8047B704700BF80B483B000AF786061
:103B2C007B6818460C37BD465DF8047B704700BFB8
:103B3C0080B582B000AF786039600022396878684F
:103B4C0000F0DEF8034618460837BD4680BD00BFBE
:103B5C0080B485B000AFF860B9607A60FB68BA6871
:103B6C001A60FB687A685A60FB6818461437BD46C1
:103B7C005DF8047B704700BF80B584B000AFF8607F
:103B8C00B9607A607A68B968F86800F0D9F800BF53
:103B9C001037BD4680BD00BF80B483B000AF7860E5
:103BAC0039603B6818460C37BD465DF8047B70479E
:103BBC0080B483B000AF786039607B6818460C37EE
:103BCC00BD465DF8047B704780B483B000AF78606D
:103BDC007B6818460C37BD465DF8047B704700BF08
:103BEC0080B582B000AF78607868FFF7EDFF074AC8
:103BFC007B681A607B6801225A607B6801229A609C
:103C0C007B6818460837BD4680BD00BFBC5C010010
:103C1C0080B483B000AF78607B6818460C37BD4623
:103C2C005DF8047B704700BF80B582B000AF786050
:103C3C007868FFF7EDFF7B6818460837BD4680BDF6
:103C4C0080B582B000AF786039603968786800F070
:103C5C0085F87B681846FFF7E7FF7B68184608373E
:103C6C00BD4680BD80B582B000AF78607B680C33F8
:103C7C00184600F081F8034618460837BD4680BD4B
:103C8C0080B584B000AFF860B9607A607868FFF7EF
:103C9C008FF803461A46B968F86800F079F800BF47
:103CAC001037BD4680BD00BF80B582B000AF7860D4
:103CBC003B1D184600F086F8034618460837BD46EB
:103CCC0080BD00BF80B582B000AF7860786800F02E
:103CDC0085F8034618460837BD4680BD80B586B0CA
:103CEC0000AFF860B9607A600123FB757A68B96837
:103CFC00F86800F07FF8034618461837BD4680BDBB
:103D0C0080B584B000AFF860B9607A60F86800F0F4
:103D1C008FF80246BB689A4234BF01230023DBB202
:103D2C00002B01D0FDF7BCEABB68242202FB03F395
:103D3C001846FDF786EA034618461037BD4680BD87
:103D4C0080B584B000AFF860B9607A60B868FDF7F0
:103D5C0026EB00BF1037BD4680BD00BF80B582B0DA
:103D6C0000AF7860396039687868FFF729FE7B68A6
:103D7C0018460837BD4680BD80B582B000AF78606C
:103D8C00786800F063F8034618460837BD4680BDD6
:103D9C0090B585B000AFF860B9607A607868FFF7CD
:103DAC0007F80446BB6819461820FDF733FF034695
:103DBC00002B03D02146184600F088F800BF1437BA
:103DCC00BD4690BD80B483B000AF78607B681B6843
:103DDC0018460C37BD465DF8047B704780B483B041
:103DEC0000AF78607B6818460C37BD465DF8047BE5
:103DFC00704700BF80B586B000AFF860B9607A60DC
:103E0C00BA68FB68D31A9B107B617B69002B06D0C8
:103E1C007B699B001A46F9687868FDF7A8EA7B690C
:103E2C009B007A68134418461837BD4680BD00BF06
:103E3C0080B483B000AF786047F2C713C0F21C7334
:103E4C0018460C37BD465DF8047B704780B483B0D0
:103E5C0000AF78607B6818460C37BD465DF8047B74
:103E6C00704700BF80B582B000AF78607B680022DD
:103E7C001A607B6804331846FFF7B0F97B68184664
:103E8C000837BD4680BD00BF80B582B000AF7860FA
:103E9C007B681846FFF7E6FF7B6818460837BD4677
:103EAC0080BD00BF80B582B000AF7860064A7B68E9
:103EBC001A607B6804331846FFF7E6FF7B681846E8
:103ECC000837BD4680BD00BFA85C010090B583B02B
:103EDC0000AF786039607B681846FFF7E3FF094A4A
:103EEC007B681A607B6803F10C043868FEF760FF8E
:103EFC00034619462046FEF72DFF7B6818460C3703
:103F0C00BD4690BD845C010080B582B000AF786086
:103F1C00084A7B681A607B681846FDF7DBFF0023B4
:103F2C00002B02D07868FDF73AEA7B681846083710
:103F3C00BD4680BD845C010080B582B000AF786066
:103F4C007868FFF7E1FF7868FDF728EA7B68184688
:103F5C000837BD4680BD00BF80B582B000AF786029
:103F6C000B4A7B681A607B680C331846FFF742FDDE
:103F7C007B681846FFF7FAF90023002B02D078680B
:103F8C00FDF70CEA7B6818460837BD4680BD00BFBC
:103F9C00685C010080B582B000AF78607868FFF78C
:103FAC00DBFF7868FDF7FAE97B6818460837BD46F1
:103FBC0080BD00BF90B583B000AF78607B680C33D8
:103FCC00184600F05FF804467868FFF74BFE03468E
:103FDC001946204600F062F800BF0C37BD4690BD74
:103FEC0080B586B000AF78607B680C33184600F063
:103FFC0049F8024607F1140311461846FFF78CFCEA
:10400C0007F1140107F10C037A681846FFF7A0FDBD
:10401C007868FFF7A1FF07F10C031846FFF7AAFC1D
:10402C0007F114031846FFF785FC00BF1837BD468F
:10403C0080BD00BF80B582B000AF7860396045F6B6
:10404C007451C0F201013868FDF7BAE90346002B40
:10405C0004D07868FFF706FE034600E000231846FC
:10406C000837BD4680BD00BF80B582B000AF786018
:10407C007B680C33184600F01FF800BF0837BD46AC
:10408C0080BD00BF80B582B000AF7860786800F06A
:10409C001FF8034618460837BD4680BD80B582B070
:1040AC0000AF786039603968786800F01DF800BF9F
:1040BC000837BD4680BD00BF80B584B000AF7860C6
:1040CC001946786800F052F81037BD4680BD00BF25
:1040DC0080B483B000AF78607B6818460C37BD465F
:1040EC005DF8047B704700BF80B582B000AF78608C
:1040FC0039603B681B681B683868984700BF0837F5
:10410C00BD4680BD80B582B000AF78607868FEF7A0
:10411C00BDFD034618460837BD4680BD80B582B04C
:10412C0000AF78607B681846FFF7ECFF0346184633
:10413C000837BD4680BD00BF80B582B000AF786047
:10414C007868FEF747FD034618460837BD4680BD24
:10415C0080B582B000AF78607B681846FFF7ECFF43
:10416C00034618460837BD4680BD00BF90B583B0E6
:10417C0000AF786039707B681846FFF7CFFF0346B5
:10418C001846FEF791FD03461C467B681846FFF760
:10419C00DFFF03461846FEF7E7F903461B6819468E
:1041AC00204600F003F80C37BD4690BD80B582B0B8
:1041BC0000AF786039607B685B6803F00103002B0B
:1041CC0002D17B681B680AE07B685B685B101A464F
:1041DC003B6813441B687A68126813441B687A683E
:1041EC005268521011463A680A44104698470837EC
:1041FC00BD4680BD90B585B000AF7860204A7B6825
:10420C001A607B6804331846FDF7B8FE7B6803F12F
:10421C00080407F10C031846FDF762E907F10C03DB
:10422C001A4645F6B061C0F201012046FDF704E9DB
:10423C0007F10C031846FDF7CAE87B6800221A62E6
:10424C007B68002283F82820786800F06BF87B6884
:10425C0011E007F10C031846FDF7B8E804E07B68A1
:10426C0008331846FDF758E87B6804331846FDF709
:10427C00C7FDFDF7B2E818461437BD4690BD00BF28
:10428C003C60010080B582B000AF78601C4A7B684E
:10429C001A607B6804331846FDF7EAFD0346002BD1
:1042AC0004D07B6804331846FDF70EE97B681B6A63
:1042BC00002B0FD07B681B6A002B08D07B681B6A15
:1042CC001B6804331B687A68126A104698477B682F
:1042DC0000221A627B6808331846FDF71EE87B68DB
:1042EC0004331846FDF78CFD0023002B02D07868B0
:1042FC00FDF754E87B6818460837BD4680BD00BF03
:10430C003C60010080B582B000AF78607868FFF740
:10431C00B9FF7868FDF742E87B6818460837BD4658
:10432C0080BD00BF90B58FB000AF786045F6B4602B
:10433C00C0F20100FCF7D8EF7B6803F1080407F129
:10434C0008037968184600F043F807F1080319468A
:10435C002046FDF75AE807F108031846FCF7DCEF96
:10436C007B6808331846FCF7A8EF0346194645F658
:10437C00CC60C0F20100FCF7ACEF7B681C1D44F272
:10438C005963C0F20103FB6200233B6307F1240372
:10439C0007F12C0292E8030083E803007B687B633F
:1043AC0007F1340207F1240107F12003184600F04D
:1043BC00C5FA07F1200319462046FDF733FD07F136
:1043CC0020031846FDF71CFD00BF3C37BD4690BDD1
:1043DC0090B5EDB002AF3B1D18603B46196007F578
:1043EC00B4731846FDF77CE807F5B47207F5A873AB
:1043FC0045F6B061C0F201011846FDF71EE807F55D
:10440C00B4731846FCF7E2EF07F5B6731846FDF7E0
:10441C0068E807F5B67207F59C7345F6B061C0F213
:10442C0001011846FDF708E807F5B6731846FCF7C6
:10443C00CEEF07F5B8731846FDF752E807F5B872DA
:10444C0007F5907345F6DC61C0F201011846FCF7E4
:10445C00F4EF07F5B8731846FCF7B8EF07F108034B
:10446C001846FCF7C6EF07F10803082245F6E86189
:10447C00C0F201011846FCF756EF07F10803184685
:10448C00FDF70AE8034683F00103DBB2002B1BD0D7
:10449C0045F6E861C0F2010145F61870C0F2010062
:1044AC00FCF716EF07F5BA731846FDF71AE807F58F
:1044BC00BA723B1D00211868FCF7BEEF07F5BA7302
:1044CC001846FCF784EF71E045F6E861C0F2010193
:1044DC0045F63870C0F20100FCF7FAEE07F5BC7136
:1044EC004FF000024FF00003084600F075FA07F198
:1044FC0008046A4607F5C07393E8030082E80300DA
:10450C0007F5BC730CCB2046FCF78AEF07F59C72C1
:10451C0007F1080311461846FCF79EEE03461A688D
:10452C000C3A126813441846FCF774EF0346002B40
:10453C0030D007F5907107F59C7300221846FCF7F4
:10454C0082EFC7F8A401D7F8A41145F64870C0F261
:10455C000100FCF7BEEE07F590731846FCF77EEFF2
:10456C000246D7F8A4311A4407F5C67007F59C71BA
:10457C004FF0FF33FCF78EEE07F5C67207F5A87304
:10458C0011461846FCF740EF07F5C6731846FCF7C2
:10459C00C4EE00BF07F108031846FCF764EE07F5FC
:1045AC00A8723B1D11461868FCF7AAEE07F1080328
:1045BC001846FCF75EEE07F590731846FCF7ACEE68
:1045CC0007F59C731846FCF7A8EE07F5A873184678
:1045DC00FCF7A2EE3B1D3A1D12681A602FE007F59E
:1045EC00B4731846FCF7F2EEFCF7F6EE07F5B6736B
:1045FC001846FCF7ECEE1BE007F5B8731846FCF711
:10460C00E6EE10E007F5BA731846FCF7E0EEFFE7AC
:10461C0007F108031846FCF72CEEFFE707F590733B
:10462C001846FCF77AEE07F59C731846FCF774EE07
:10463C0007F5A8731846FCF770EEFCF7CEEE3B1DA1
:10464C00186807F5D677BD4690BD00BF90B5ADF69E
:10465C00740D00AF3B1D18600023C7F86C3807F6CB
:10466C002C031846FCF73CEF07F62C0207F10C0361
:10467C0045F66071C0F201011846FCF7DEEE07F654
:10468C002C031846FCF7A2EE07F10C031846FCF7B6
:10469C0014EE024607F5856311461846FCF76CEEDE
:1046AC0007F10C031846FCF7DAEE024607F58563B2
:1046BC000021995407F585631846FCF7E2EE034692
:1046CC00C7F8683841F27073C7F83C3807F63C02FB
:1046DC0007F5036311461846FDF756FD07F503630E
:1046EC001846FEF70FF945F66C70C0F20100FCF7A6
:1046FC00FCED0C20FCF7A4ED03461C462046FCF711
:10470C0077FF3B1D1B681C623B1D1B681C6A3B1D15
:10471C001B6803F1080207F5046311461846FCF701
:10472C00D2ED07F504631A4642F20F712046FCF7EE
:10473C00B3FF03461C4607F504631846FCF7ECED83
:10474C00002C7DD007F58563194645F67C70C0F2C8
:10475C000100FCF7BEED3B1D1B681B6A07F585616C
:10476C00D7F868281846FCF7F3FF1923C7F8603808
:10477C0007F5066207F6580311461846FDF704FDC7
:10478C0007F658031846FEF7BDF83B1D1B681B6A5D
:10479C0007F124014FF480621846FCF7F3FF03463F
:1047AC00C7F86438D7F8641845F69070C0F2010069
:1047BC00FCF78EEDD7F86438002B4FDD07F124029F
:1047CC00D7F86438134400221A7007F124031846F2
:1047DC00FCF79CED02463B1D1B685A623B1D1B6897
:1047EC005B6A194645F6A470C0F20100FCF770ED47
:1047FC000023C7F86C383B1D1B68012283F8282066
:10480C003B1D1B681B6A002B2AD045F6C070C0F2FA
:10481C000100FCF76AED3B1D1B681B6A002B0AD0DC
:10482C003B1D1B681B6A1B6804331B683A1D12680E
:10483C00126A104698473B1D1B6800221A620FE053
:10484C00D7F86C380133C7F86C38D7F86C1845F6C4
:10485C00D470C0F20100FCF73CED02E000BF00E0B8
:10486C0000BF3B1D1B681B6A002B3FF42BAF45F6AA
:10487C00F070C0F20100FCF738ED3B1D1B681B6AA1
:10488C00002B0AD03B1D1B681B6A1B6804331B687A
:10489C003A1D1268126A104698473B1D1B6800228D
:1048AC001A620FE707F62C031846FCF790EDFCF79D
:1048BC0094ED2046FCF772ED05E007F5046318460D
:1048CC00FCF72AEDFFE707F10C031846FCF724ED83
:1048DC00FCF782ED80B483B000AF78607B6818463B
:1048EC000C37BD465DF8047B704700BF80B483B0C5
:1048FC0000AF78607B6818460C37BD465DF8047BCA
:10490C00704700BF80B582B000AF78607B6804331D
:10491C001846FDF7E1FD7B6818460837BD4680BD9B
:10492C0080B582B000AF78607B681846FFF7EAFF6D
:10493C007B6818460837BD4680BD00BF90B58DB06A
:10494C0000AFF860B9607A60FB681846FDF734FA7E
:10495C00B868FFF7BFFF04467868FFF7C7FF024649
:10496C0007F124032146184600F02AF907F11C032D
:10497C0007F12402F968184600F04CF907F11C0203
:10498C0007F114031146184600F064F907F11403FB
:10499C0041F2C842C0F201021946F868FCF7F8EC83
:1049AC0007F114031846FDF787FA07F11C031846A4
:1049BC00FFF7B6FFFB680BE007F114031846FDF791
:1049CC007BFA07F11C031846FFF7AAFFFCF704ED6E
:1049DC0018463437BD4690BD90B484B000AFF86033
:1049EC00C7E90023FA68D7E90034C2E90034FB6850
:1049FC0000229A60FB680022DA60FB6818461037C8
:104A0C00BD4690BC704700BF80B483B000AF7860E7
:104A1C007B6818460C37BD465DF8047B704700BFB9
:104A2C0080B582B000AF78607B681846FFF7ECFF6A
:104A3C00034618460837BD4680BD00BF80B582B01E
:104A4C0000AF786039603868FFF750FF03461A688A
:104A5C007B681A607B6818460837BD4680BD00BF6E
:104A6C0090B583B000AF786039607C683868FFF728
:104A7C00D7FF03461846FFF739FF03461946204671
:104A8C00FFF7DCFF7B6818460C37BD4690BD00BFB6
:104A9C0080B483B000AF78607B6818460C37BD4695
:104AAC005DF8047B704700BF80B483B000AF7860C2
:104ABC007B6818460C37BD465DF8047B704700BF19
:104ACC0080B483B000AF78607B6818460C37BD4665
:104ADC005DF8047B704700BF80B582B000AF786092
:104AEC007B6804331846FFF7EBFF0346184608377C
:104AFC00BD4680BD80B483B000AF78607B6818463B
:104B0C000C37BD465DF8047B704700BF80B582B0A2
:104B1C0000AF786039603868FFF7ECFF02467B68BD
:104B2C0092E8030083E803007B6818460837BD460B
:104B3C0080BD00BF90B583B000AF786039607C68F1
:104B4C003868FFF7A5FF03461846FFF7ADFF03468D
:104B5C0019462046FFF784FF7B681C1D3868FFF759
:104B6C00BBFF03461846FFF7C5FF03461946204610
:104B7C00FFF7CCFF7B6818460C37BD4690BD00BFD5
:104B8C0080B582B000AF786039607B683A681146B6
:104B9C001846FFF7CFFF7B6818460837BD4680BD27
:104BAC0080B582B000AF786039607B683A68114696
:104BBC001846FFF7E5FF7B6818460837BD4680BDF1
:104BCC0080B586B000AFF860B9607A60B868FFF75E
:104BDC0081FE024607F1100306CA184600F060F881
:104BEC007868FFF783FE024607F110031946F86850
:104BFC0000F0B4F8F8681837BD4680BD80B483B0B7
:104C0C0000AF78607B6818460C37BD465DF8047BB6
:104C1C00704700BF80B584B000AFF860B9607A60AF
:104C2C007868FFF7EBFF0246FB681146184600F068
:104C3C00AFF8F8681037BD4680BD00BF80B483B0B4
:104C4C0000AF78607B6818460C37BD465DF8047B76
:104C5C00704700BF90B583B000AF786039607C6856
:104C6C003868FFF7EBFF03461946204600F0B6F80C
:104C7C007B6818460C37BD4690BD00BF80B584B02C
:104C8C0000AFF8603B1D83E80600F8683B1D93E815
:104C9C00060000F0D9F8FB6818461037BD4680BDF9
:104CAC0080B584B000AFF8603B1D83E806003B1D67
:104CBC0093E80600F868FFF7E1FFF8681037BD4687
:104CCC0080BD00BF90B583B000AF786039607C6860
:104CDC003868FFF70BFE034619462046FFF7AEFE79
:104CEC007B6818460C37BD4690BD00BF90B585B0AB
:104CFC0000AFF860B9607A60FC687868FFF7F6FD81
:104D0C00034619462046FFF7DDFFFB681C1DB868FB
:104D1C00FFF7F0FE034619462046FFF7F7FEFB6847
:104D2C0018461437BD4690BDB0B584B000AFF860DE
:104D3C00B9607A60FC68B868FFF7DCFE05467868F5
:104D4C00FFF7D4FD03461A4629462046FFF7CEFF4F
:104D5C00FB6818461037BD46B0BD00BFB0B584B077
:104D6C0000AFF860B9607A60FC68B868FFF7C2FE03
:104D7C0005467868FFF7BAFD03461A4629462046D1
:104D8C00FFF7D2FFFB6818461037BD46B0BD00BF19
:104D9C0080B584B000AF7860396007F10C03184619
:104DAC0000F068F83868FFF729FF02467B6807F1C6
:104DBC000C01184600F076F807F10C03184600F0C9
:104DCC0065F806E007F10C03184600F05FF8FCF7F5
:104DDC0004EB78681037BD4680BD00BF80B582B04B
:104DEC0000AF786039603B681A687B681A607B6832
:104DFC0004331846FEF7F2F97B681A1D3B6804333E
:104E0C0019461046FEF764FB3B6800221A607B686B
:104E1C0018460837BD4680BD80B483B000AF7860BB
:104E2C007B6818460C37BD465DF8047B704700BFA5
:104E3C0080B582B000AF78607868FFF7EDFF7B68D3
:104E4C0018460837BD4680BD80B584B000AFF86009
:104E5C003B1D83E80600F868FFF7EAFFFB681A467B
:104E6C003B1D93E8030082E80300FB6818461037EB
:104E7C00BD4680BD80B582B000AF7860786800F028
:104E8C0025F87B6818460837BD4680BD80B582B0D2
:104E9C0000AF7860786800F025F87B681846083712
:104EAC00BD4680BD90B587B000AFF860B9607A6040
:104EBC007868FFF7A3FE0346BA682146F86800F04D
:104ECC001DF8F8681C37BD4690BD00BF80B483B098
:104EDC0000AF78607B6818460C37BD465DF8047BE4
:104EEC00704700BF80B483B000AF78607B68184611
:104EFC000C37BD465DF8047B704700BFB0B584B07D
:104F0C0000AFF86039727A603B60FC683868FFF774
:104F1C0075FE03467A682946204600F005F8FB68C2
:104F2C0018461037BD46B0BDB0B588B002AFF860BA
:104F3C0039727A603B60FB6800221A60FB681C1DAA
:104F4C003868FFF75BFE034600937B680022294616
:104F5C00204600F027F8FB68043345F67451C0F284
:104F6C0001011846FEF79CFC7861FB687A691A60AF
:104F7C00FB68181DFB681968FB681B681A46FEF76E
:104F8C00A9FCFB6818461837BD46B0BD80B483B089
:104F9C0000AF78607B6818460C37BD465DF8047B23
:104FAC00704700BF2DE9F0418AB000AFF86039724C
:104FBC007A603B60FB6800221A6007F11C033968B9
:104FCC00184600F063F807F1140307F11C021146B0
:104FDC00184600F075F807F11403184600F09AF81B
:104FEC0003467B623868FFF7D1FF024607F12003C6
:104FFC001146184600F09EF807F12006386CFFF7B2
:10500C00FDFD80467D6A29462420FCF703FE0446FC
:10501C00002C04D042463146204600F0B1F807F18E
:10502C0020031846FFF732FFFB687A6A1A6007F113
:10503C0014030021184600F0E5F807F11403184694
:10504C0000F052F807F11C03184600F02DF8FB682D
:10505C0016E029462046FCF7E9FD07F12003184627
:10506C00FFF714FFFFE707F11403184600F03CF8B4
:10507C00FFE707F11C03184600F016F8FCF7ACE943
:10508C0018462837BD46BDE8F08100BF80B582B018
:10509C0000AF78603960786800F0C4F87B68184617
:1050AC000837BD4680BD00BF80B582B000AF7860C8
:1050BC00786800F0C3F87B6818460837BD4680BD99
:1050CC0080B582B000AF786039600121386800F09B
:1050DC00C1F803461A463968786800F0CBF878684E
:1050EC000837BD4680BD00BF80B582B000AF786088
:1050FC007B685B68002B07D07B6818687B685B68F3
:10510C000122194600F0CAF87B6818460837BD46DC
:10511C0080BD00BF80B582B000AF78607B685B68F3
:10512C001946786800F0CAF8034618460837BD4699
:10513C0080BD00BF80B582B000AF7860396039683F
:10514C00786800F0C7F87B6818460837BD4680BD04
:10515C0080B582B000AF78607868FFF797FE7B6807
:10516C0018460837BD4680BD80B582B000AF786068
:10517C007868FFF7EDFF7B6818460837BD4680BDA1
:10518C0090B587B000AFF860B9607A60FB681846DC
:10519C00FEF726FD1A4AFB681A60FB6803F10C0443
:1051AC0007F11403B9681846FFF7C4FF07F114039D
:1051BC001946204600F0A6F807F114031846FFF72D
:1051CC0065FEF86800F0B0F804467868FFF716FD45
:1051DC0003461A462146B86800F0B4F8FB680AE0AA
:1051EC00FB680C331846FFF7BFFFFB681846FEF749
:1051FC00BDF8FCF7F2E818461C37BD4690BD00BF61
:10520C000C60010080B483B000AF786039607B68BB
:10521C0000225A607B6818460C37BD465DF8047B4B
:10522C00704700BF80B483B000AF78607B681846CD
:10523C000C37BD465DF8047B704700BF80B483B06B
:10524C0000AF78607B6818460C37BD465DF8047B70
:10525C00704700BF80B582B000AF78603960002223
:10526C003968786800F082F8034618460837BD465E
:10527C0080BD00BF80B485B000AFF860B9607A60C3
:10528C00FB68BA681A60FB687A685A60FB68184653
:10529C001437BD465DF8047B704700BF80B584B001
:1052AC0000AFF860B9607A607A68B968F86800F0A5
:1052BC007DF800BF1037BD4680BD00BF80B483B001
:1052CC0000AF786039603B6818460C37BD465DF816
:1052DC00047B704780B483B000AF786039607B6822
:1052EC0018460C37BD465DF8047B704780B582B01C
:1052FC0000AF78607868FEF78BFC7B68184608373F
:10530C00BD4680BD80B582B000AF78603960396829
:10531C00786800F059F87B681846FFF7E7FF7B6860
:10532C0018460837BD4680BD80B582B000AF7860A6
:10533C007B680C33184600F055F8034618460837BE
:10534C00BD4680BD80B584B000AFF860B9607A60AE
:10535C007868FFF753FC03461A46B968F86800F002
:10536C004DF800BF1037BD4680BD00BF80B584B07E
:10537C0000AFF860B9607A60F86800F059F802463E
:10538C00BB689A4234BF01230023DBB2002B01D04F
:10539C00FBF786EFBB68242202FB03F31846FBF7EE
:1053AC0050EF034618461037BD4680BD80B584B01B
:1053BC0000AFF860B9607A60B868FBF7F0EF00BF37
:1053CC001037BD4680BD00BF80B582B000AF78609D
:1053DC00396039687868FFF7ADFE7B681846083786
:1053EC00BD4680BD80B582B000AF7860786800F0B3
:1053FC002DF8034618460837BD4680BD90B585B0DC
:10540C0000AFF860B9607A607868FFF7F7FB044684
:10541C00BB6819461820FCF7FDFB0346002B03D094
:10542C002146184600F01EF800BF1437BD4690BD4B
:10543C0080B483B000AF786047F2C713C0F21C731E
:10544C0018460C37BD465DF8047B704780B483B0BA
:10545C0000AF78607B6818460C37BD465DF8047B5E
:10546C00704700BF90B583B000AF786039607B683F
:10547C001846FEF717FD094A7B681A607B6803F132
:10548C000C043868FFF7BAFB034619462046FFF7B1
:10549C0087FB7B6818460C37BD4690BD2860010021
:1054AC0080B582B000AF7860084A7B681A607B6870
:1054BC001846FCF70FFD0023002B02D07868FBF791
:1054CC006EEF7B6818460837BD4680BD286001002A
:1054DC0080B582B000AF78607868FFF7E1FF78683C
:1054EC00FBF75CEF7B6818460837BD4680BD00BFF4
:1054FC0080B582B000AF78600B4A7B681A607B681D
:10550C000C331846FFF730FE7B681846FDF72EFF6C
:10551C000023002B02D07868FBF740EF7B6818461D
:10552C000837BD4680BD00BF0C60010080B582B05D
:10553C0000AF78607868FFF7DBFF7868FBF72EEF39
:10554C007B6818460837BD4680BD00BF90B583B058
:10555C0000AF78607B680C33184600F05FF80446A7
:10556C007868FFF7E1FE03461946204600F062F822
:10557C0000BF0C37BD4690BD80B586B000AF7860DB
:10558C007B680C33184600F049F8024607F1140307
:10559C0011461846FFF77AFD07F1140107F10C03C9
:1055AC007A681846FFF766FE7868FFF7A1FF07F1E7
:1055BC000C031846FFF798FD07F114031846FFF784
:1055CC0073FD00BF1837BD4680BD00BF80B582B0EB
:1055DC0000AF7860396045F67451C0F2010138684B
:1055EC00FBF7EEEE0346002B04D07868FFF79CFE29
:1055FC00034600E0002318460837BD4680BD00BFB7
:10560C0080B582B000AF78607B680C33184600F030
:10561C001FF800BF0837BD4680BD00BF80B582B003
:10562C0000AF7860786800F01FF80346184608371A
:10563C00BD4680BD80B582B000AF786039603968F6
:10564C00786800F01DF800BF0837BD4680BD00BF6C
:10565C0080B584B000AF78601946786800F052F8D5
:10566C001037BD4680BD00BF80B483B000AF7860FA
:10567C007B6818460C37BD465DF8047B704700BF4D
:10568C0080B582B000AF786039603B681B681B68DE
:10569C003868984700BF0837BD4680BD80B582B0DA
:1056AC0000AF78607868FFF717FA0346184608379A
:1056BC00BD4680BD80B582B000AF78607B6818466F
:1056CC00FFF7ECFF034618460837BD4680BD00BF08
:1056DC0080B582B000AF78607868FFF7A1F9034617
:1056EC0018460837BD4680BD80B582B000AF7860E3
:1056FC007B681846FFF7ECFF034618460837BD4693
:10570C0080BD00BF90B583B000AF786039707B6806
:10571C001846FFF7CFFF03461846FFF7EBF9034691
:10572C001C467B681846FFF7DFFF03461846FFF759
:10573C00DDF803461B681946204600F003F80C37C9
:10574C00BD4690BD80B582B000AF786039607B6893
:10575C005B6803F00103002B02D17B681B680AE035
:10576C007B685B685B101A463B6813441B687A685D
:10577C00126813441B687A685268521011463A68D2
:10578C000A44104698470837BD4680BD90B589B08D
:10579C0000AF7860396046F68450C0F20200FBF727
:1057AC008CED0346194646F25010C0F20100FBF78F
:1057BC0090ED2C20FBF744ED03461C462046FEF7EB
:1057CC0019FDFC612020FBF73CED03461C46F969F2
:1057DC002046FCF7E1FBBC614FF47A737B6107F167
:1057EC00140207F1080311461846FCF7CDFC07F12B
:1057FC0008031846FDF786F8EEE72046FBF7CEEDDA
:10580C00FBF7EAED2046FBF7CAEDFBF7E6ED00BF30
:10581C0080B584B000AF786039607B68012B31D1E2
:10582C003B684FF6FF7293422CD107F10C031846DC
:10583C00FBF756EE07F10C031A4646F27811C0F24C
:10584C00010146F68450C0F20200FBF7F6ED07F1B9
:10585C000C031846FBF7BAED46F62452C0F20202CE
:10586C0041F22431C0F2010146F68450C0F202002C
:10587C00FBF7ECEC06E007F10C031846FBF7A6ED82
:10588C00FBF7AAED1037BD4680BD00BF80B500AF59
:10589C004FF6FF710120FFF7BBFF80BD2DE9F843E8
:1058AC0006460C4D0F469046DFF82C907D44FBF7D6
:1058BC00B8ECF944A5EB0905AD1009D0002459F852
:1058CC00243042460134394630469847AC42F6D132
:1058DC00BDE8F883581201004A120100704700BF5E
:0858EC0008402DE90880BDE829
:1058F40044656661756C7420436F6E73747275636E
:10590400746F72206F662043536F636B2021000015
:10591400736F636B657420436F6E73747275637415
:105924006F72206F662043536F636B202100000069
:1059340044656661756C7420446573747275637430
:105944006F72206F6620536F636B00002A2A2A202F
:105954004552524F52203A3A2043536F636B3A20D8
:1059640063616E27742063726561746520736F636D
:105974006B6574002A2A2A204552524F52203A3A23
:105984002043536F636B3A2062696E6420666169D9
:105994006C6564002A2A2A204552524F52203A3A12
:1059A4002043536F636B3A20636F6E6E656374209C
:1059B400746F20536572766572206661696C6564E4
:1059C4000000000043536F636B203A3A204C697324
:1059D40074656E696E67206F6E20706F7274202517
:1059E400640A00002A2A2A204552524F52203A3A89
:1059F4002043536F636B204C697374656E2045526A
:105A0400524F52202121212121000000616363654E
:105A140070743A204552524F5220210043536F6311
:105A24006B3A3A20446F416363657074206E657706
:105A34002043536F636B282900000000000000001E
:105A4400505A01003516010085160100306D020020
:105A5400585A01003543536F636B00004750494F58
:105A6400204D656D6F7279204F4B0000656E746533
:105A74007220746F2073756E78695F7365747570C6
:105A8400000000002F6465762F6D656D0000000036
:105A94006770696F5F6D656D5B25785D2067706900
:105AA4006F5F6D61705B25785D2070696F5F6D61FC
:105AB400705B25785D0A0000725F6770696F5F6DC7
:105AC40061705B25785D20725F70696F5F6D6170D6
:105AD4005B25785D0A00000073756E78695F7265F6
:105AE40061646C0073756E78695F77726974656C54
:105AF4000000000073756E78695F73657475705F7C
:105B04006770696F20206770696F3A3A25640A00EC
:105B14006C696E653A25646770696F206E756D6295
:105B24006572206572726F720A00000073756E7878
:105B3400695F6770696F5F66756E6374696F6E0025
:105B440073756E78695F7365745F70756C6C75706E
:105B5400646E00006770696F282564292062616E95
:105B64006B28256429206E756D282564290A000098
:105B740000000000845B01001118010041180100BD
:105B8400306D02008C5B010036435F4750494F0083
:105B94004E6F206D656D6F727920666F722047506D
:105BA400494F202D2D3E2072657475726E000000E1
:105BB40025642C000A2053697A653A3A2564202C1E
:105BC4002061766572616765436F756E743A3A2534
:105BD40064202C20617665726167653A3A25640A0F
:105BE4000000000061766572616765204E6F726D1A
:105BF40069657274203A2564000000002020545224
